:100000000C9435010C9466010C9466010C94660105
:100010000C9466010C9466010C9466010C946601C4
:100020000C9466010C9466010C9466010C946601B4
:100030000C9466010C9466010C9466010C946601A4
:100040000C9466010C9466010C9466010C94660194
:100050000C9466010C9466010C9466010C94170DC7
:100060000C9466010C948B0D0C94610D0C9466013C
:100070000C9466010C9466010C9466010C94660164
:100080000C9466010C9466010C9466010C94660154
:100090000C9466010C9466010C9466010C94660144
:1000A0000C9466010C9466010C9466010C94660134
:1000B0000C9466010C9466010C9466010C94660124
:1000C0000C9466010C9466010C9466010C94660114
:1000D0000C9466010C9466010C9466010C94660104
:1000E0000C9466010C945A030C94AE010C94A70373
:1000F0000C9414030C94DD010C94AA010C94B70128
:100100000C94C5010C9400030C94C4020C94A60139
:100110000C94D3010C94B1010C94E1010C94CF0127
:100120000C94A2010C94DC010C94C1010C942203E8
:100130000C94F1020C9427100C94C9010C949C01AE
:100140000C94BB010C94D70100002100240027006F
:100150002A002D00300033000101000004010701D6
:100160000A0100002200250028002B002E0031008B
:10017000340002010000050108010B01000020000D
:100180002300260029002C002F003200000100006F
:10019000030106010901050505050705080808080A
:1001A000020202020A0A080804040404010101010F
:1001B000010101010303030303030303040707070A
:1001C0000C0C0C0C0C0C0C0C0202020206060606AF
:1001D000060606060B0B0B0B0B0B0B0B010210207C
:1001E000200808102040102040800201020108046D
:1001F0000201010204081020408080402010080401
:100200000201800402018040201008040201080459
:10021000020101020408102040800102040810209D
:10022000408000000A0B02090C0D0E0807030401B0
:1002300000000000000000000000000000000000BE
:10024000000000000000000000000000000012118B
:10025000100000000000000000000000000000008E
:100260000000000000000000271011241FBECFEF87
:10027000D1E2DEBFCDBF00E00CBF23E0A2E0B3E0DF
:1002800001C01D92A23BB207E1F713E0A0E0B2E08B
:10029000E0E0F1E200E00BBF02C007900D92A23057
:1002A000B107D9F711E0C5E3D1E000E006C021971E
:1002B0000109802FFE010E947610C433D10780E02F
:1002C0000807A9F70E94C10D0C947E100C94000041
:1002D00080917B00877F80937B0081E480937C000A
:1002E00080917A00806480937A0080917A0086FD04
:1002F000FCCF8091780090917900089581508231EF
:1003000008F05AC0E82FF0E08827E657FE4F8F4FDD
:100310000C947610AA01AE019C01A201A601DC0199
:10032000B101B701BB01C101C501C901CF01D301B1
:10033000DC01D701DD01E101809180008F7780939E
:1003400080000895809180008F7DF9CF809180009A
:10035000877FF5CF84B58F7784BD089584B58F7D71
:10036000FBCF8091B0008F778093B000089580918B
:10037000B0008F7DF9CF809190008F7780939000AF
:100380000895809190008F7DF9CF80919000877FB4
:10039000F5CF8091A0008F778093A0000895809181
:1003A000A0008F7DF9CF8091A000877FF5CF80914D
:1003B00020018F77809320010895809120018F7D07
:1003C000F9CF80912001877FF5CFCF93DF93282F3E
:1003D00030E0F901EE5DFD4F8491F901E452FE4FEA
:1003E000D491F901EA56FE4FC491CC23A1F08111BA
:1003F0000E947E01EC2FF0E0EE0FFF1FE458FE4F4D
:10040000A591B491EC91ED2381E090E009F480E0B6
:10041000DF91CF91089580E090E0FACF1F93CF93C2
:10042000DF93282F30E0F901EE5DFD4F8491F90153
:10043000E452FE4FD491F901EA56FE4FC491CC2309
:10044000A9F0162F81110E947E01EC2FF0E0EE0F33
:10045000FF1FEE59FE4FA591B4918FB7F894EC9120
:10046000111108C0D095DE23DC938FBFDF91CF91AF
:100470001F910895DE2BF8CFCF93DF9390E0FC011E
:10048000E452FE4F24918A569E4FFC0184918823AA
:10049000D1F090E0880F991FFC01E85BFE4FA59119
:1004A000B491FC01EE59FE4FC591D49161110EC07B
:1004B0009FB7F8948C91E22FE0958E238C9328813E
:1004C000E223E8839FBFDF91CF9108958FB7F8941F
:1004D000EC91E22BEC938FBFF6CF3FB7F89480916D
:1004E000110390911203A0911303B091140326B548
:1004F000A89B05C02F3F19F00196A11DB11D3FBF5C
:10050000BA2FA92F982F8827BC01CD01620F711D2A
:10051000811D911D42E0660F771F881F991F4A9524
:10052000D1F708958F929F92AF92BF92CF92DF92B0
:10053000EF92FF924B015C010E946D026B017C0106
:100540000E946D026C197D098E099F09683E7340F7
:1005500081059105A8F321E0821A9108A108B1084C
:1005600088EEC80E83E0D81EE11CF11C81149104B2
:10057000A104B10429F7FF90EF90DF90CF90BF90D6
:10058000AF909F908F900895AF92BF92CF92DF92DD
:10059000EF92FF920F931F93CF93DF936C017B0138
:1005A0008B01040F151FEB015E01AE18BF08C017C9
:1005B000D10759F06991D601ED91FC910190F0813C
:1005C000E02DC6011995892B79F7C501DF91CF91EF
:1005D0001F910F91FF90EF90DF90CF90BF90AF9061
:1005E0000895FC01538D448D252F30E0842F90E039
:1005F000821B930B541710F0CF960895019708951E
:10060000FC01918D828D981761F0A28DAE0FBF2FE6
:10061000B11D5D968C91928D9F5F9F73928F90E03C
:1006200008958FEF9FEF0895FC01918D828D9817AB
:1006300031F0828DE80FF11D858D90E008958FEFE8
:100640009FEF0895FC01918D228D892F90E0805CB1
:100650009F4F821B91098F739927089585E193E03D
:100660000E94220321E0892B09F420E0822F0895C3
:10067000FC01A48DA80FB92FB11DA35ABF4F2C9117
:10068000848D90E001968F739927848FA689B7890E
:100690002C93A089B1898C91837080648C93938D05
:1006A000848D981306C00288F389E02D80818F7DA8
:1006B00080830895EF92FF920F931F93CF93DF9360
:1006C000EC0181E0888F9B8D8C8D98131AC0E8898E
:1006D000F989808185FF15C09FB7F894EE89FF895D
:1006E0006083E889F98980818370806480839FBFFB
:1006F00081E090E0DF91CF911F910F91FF90EF90FB
:100700000895F62E0B8D10E00F5F1F4F0F7311270A
:10071000E02E8C8D8E110CC00FB607FCFACFE88945
:10072000F989808185FFF5CFCE010E943803F1CF92
:10073000EB8DEC0FFD2FF11DE35AFF4FF0829FB7B9
:10074000F8940B8FEA89FB8980818062CFCFCF93A9
:10075000DF93EC01888D8823B9F0AA89BB89E889E9
:10076000F9898C9185FD03C0808186FD0DC00FB68F
:1007700007FCF7CF8C9185FFF2CF808185FFEDCF0D
:10078000CE010E943803E9CFDF91CF91089581E037
:100790008093030308950E942E03882319F081E0BB
:1007A0008093030380E090E0892B49F080E090E0A3
:1007B000892B29F00E94000081110E94000080E036
:1007C00090E0892B49F080E090E0892B29F00E948D
:1007D000000081110E94000080E090E0892B49F028
:1007E00080E090E0892B29F00E94000081110C9498
:1007F0000000089561E089E20E940E0261E087E254
:100800000E940E0260E086E20E940E0260E088E232
:100810000E940E0260E08AE20E940E0260E08CE21A
:100820000E940E0260E08EE20C940E0260E089E20B
:100830000E940E0260E087E20E940E0260E08DE2FC
:100840000E940E0261E086E20E940E0261E088E2F0
:100850000E940E0260E08AE20E940E0261E08CE2D9
:100860000E940E0261E08EE20C940E0260E089E2CA
:100870000E940E0260E087E20E940E0260E08DE2BC
:100880000E940E0260E086E20E940E0261E088E2B1
:100890000E940E0260E08AE20E940E0261E08CE299
:1008A0000E940E0261E08EE20C940E0260E089E28A
:1008B0000E940E0260E087E20E940E0260E08DE27C
:1008C0000E940E0261E086E20E940E0260E088E271
:1008D0000E940E0260E08AE20E940E0261E08CE259
:1008E0000E940E0261E08EE20C940E0260E089E24A
:1008F0000E940E0260E087E20E940E0260E08DE23C
:100900000E940E0260E086E20E940E0260E088E231
:100910000E940E0260E08AE20E940E0261E08CE218
:100920000E940E0261E08EE20C940E0260E089E209
:100930000E940E0260E087E20E940E0260E08DE2FB
:100940000E940E0261E086E20E940E0261E088E2EF
:100950000E940E0261E08AE20E940E0260E08CE2D8
:100960000E940E0261E08EE20C940E0260E089E2C9
:100970000E940E0260E087E20E940E0260E08DE2BB
:100980000E940E0260E086E20E940E0261E088E2B0
:100990000E940E0261E08AE20E940E0260E08CE298
:1009A0000E940E0261E08EE20C940E0260E089E289
:1009B0000E940E0260E087E20E940E0260E08DE27B
:1009C0000E940E0261E086E20E940E0260E088E270
:1009D0000E940E0261E08AE20E940E0260E08CE258
:1009E0000E940E0261E08EE20C940E0260E089E249
:1009F0000E940E0260E087E20E940E0260E08DE23B
:100A00000E940E0260E086E20E940E0260E088E230
:100A10000E940E0261E08AE20E940E0260E08CE217
:100A20000E940E0261E08EE20C940E0260E089E208
:100A30000E940E0260E087E20E940E0260E08DE2FA
:100A40000E940E0261E086E20E940E0261E088E2EE
:100A50000E940E0260E08AE20E940E0260E08CE2D8
:100A60000E940E0261E08EE20C940E0260E089E2C8
:100A70000E940E0260E087E20E940E0260E08DE2BA
:100A80000E940E0260E086E20E940E0261E088E2AF
:100A90000E940E0260E08AE20E940E0260E08CE298
:100AA0000E940E0261E08EE20C940E0260E089E288
:100AB0000E940E0260E087E20E940E0260E08DE27A
:100AC0000E940E0261E086E20E940E0260E088E26F
:100AD0000E940E0260E08AE20E940E0260E08CE258
:100AE0000E940E0261E08EE20C940E0260E089E248
:100AF0000E940E0260E087E20E940E0260E08DE23A
:100B00000E940E0260E086E20E940E0260E088E22F
:100B10000E940E0260E08AE20E940E0260E08CE217
:100B20000E940E0261E08EE20C940E0260E089E207
:100B30000E940E0260E087E20E940E0260E08DE2F9
:100B40000E940E0261E086E20E940E0261E088E2ED
:100B50000E940E0261E08AE20E940E0261E08CE2D5
:100B60000E940E0260E08EE20C940E0260E089E2C8
:100B70000E940E0260E087E20E940E0260E08DE2B9
:100B80000E940E0260E086E20E940E0261E088E2AE
:100B90000E940E0261E08AE20E940E0261E08CE295
:100BA0000E940E0260E08EE20C940E0260E089E288
:100BB0000E940E0260E087E20E940E0260E08DE279
:100BC0000E940E0261E086E20E940E0260E088E26E
:100BD0000E940E0261E08AE20E940E0261E08CE255
:100BE0000E940E0260E08EE20C940E0260E089E248
:100BF0000E940E0260E087E20E940E0260E08DE239
:100C00000E940E0260E086E20E940E0260E088E22E
:100C10000E940E0261E08AE20E940E0261E08CE214
:100C20000E940E0260E08EE20C940E0260E089E207
:100C30000E940E0260E087E20E940E0260E08DE2F8
:100C40000E940E0261E086E20E940E0261E088E2EC
:100C50000E940E0260E08AE20E940E0261E08CE2D5
:100C60000E940E0260E08EE20C940E0260E089E2C7
:100C70000E940E0260E087E20E940E0260E08DE2B8
:100C80000E940E0260E086E20E940E0261E088E2AD
:100C90000E940E0260E08AE20E940E0261E08CE295
:100CA0000E940E0260E08EE20C940E0260E089E287
:100CB0000E940E0260E087E20E940E0260E08DE278
:100CC0000E940E0261E086E20E940E0260E088E26D
:100CD0000E940E0260E08AE20E940E0261E08CE255
:100CE0000E940E0260E08EE20C940E0260E089E247
:100CF0000E940E0260E087E20E940E0260E08DE238
:100D00000E940E0260E086E20E940E0260E088E22D
:100D10000E940E0260E08AE20E940E0261E08CE214
:100D20000E940E0260E08EE20C940E0260E089E206
:100D30000E940E0260E087E20E940E0260E08DE2F7
:100D40000E940E0261E086E20E940E0261E088E2EB
:100D50000E940E0261E08AE20E940E0260E08CE2D4
:100D60000E940E0260E08EE20C940E0260E089E2C6
:100D70000E940E0260E087E20E940E0260E08DE2B7
:100D80000E940E0260E086E20E940E0261E088E2AC
:100D90000E940E0261E08AE20E940E0260E08CE294
:100DA0000E940E0260E08EE20C940E0260E089E286
:100DB0000E940E0260E087E20E940E0260E08DE277
:100DC0000E940E0261E086E20E940E0260E088E26C
:100DD0000E940E0261E08AE20E940E0260E08CE254
:100DE0000E940E0260E08EE20C940E0260E089E246
:100DF0000E940E0260E087E20E940E0260E08DE237
:100E00000E940E0260E086E20E940E0260E088E22C
:100E10000E940E0261E08AE20E940E0260E08CE213
:100E20000E940E0260E08EE20C940E0260E089E205
:100E30000E940E0260E087E20E940E0260E08DE2F6
:100E40000E940E0261E086E20E940E0261E088E2EA
:100E50000E940E0260E08AE20E940E0260E08CE2D4
:100E60000E940E0260E08EE20C940E0260E089E2C5
:100E70000E940E0260E087E20E940E0260E08DE2B6
:100E80000E940E0260E086E20E940E0261E088E2AB
:100E90000E940E0260E08AE20E940E0260E08CE294
:100EA0000E940E0260E08EE20C940E0260E089E285
:100EB0000E940E0260E087E20E940E0260E08DE276
:100EC0000E940E0261E086E20E940E0260E088E26B
:100ED0000E940E0260E08AE20E940E0260E08CE254
:100EE0000E940E0260E08EE20C940E0260E089E245
:100EF0000E940E0260E087E20E940E0260E08DE236
:100F00000E940E0260E086E20E940E0260E088E22B
:100F10000E940E0260E08AE20E940E0260E08CE213
:100F20000E940E0260E08EE20C940E02FC01019021
:100F30000020E9F73197AF01481B590BBC0185E14F
:100F400093E00C94C4028F929F92AF92BF92CF9283
:100F5000DF92EF92FF920F931F93CF93DF93CDB762
:100F6000DEB7A1970FB6F894DEBF0FBECDBF6C0100
:100F7000990FEE08FF08F7FE41C06DE285E193E0AE
:100F80000E945A038C0122273327A9012C193D09FD
:100F90004E095F0919A2CE0181967C019AE0892E43
:100FA000912CA12CB12CCA01B901A50194010E9478
:100FB0005410605DF70162937F01211531054105F1
:100FC000510589F790E080E0309719F0CF010E9439
:100FD0009607800F911FA1960FB6F894DEBF0FBE43
:100FE000CDBFDF91CF911F910F91FF90EF90DF90D8
:100FF000CF90BF90AF909F908F900895A7019601DA
:1010000019A28E010F5D1F4F8AE0C82ED12CE12C52
:10101000F12CCA01B901A70196010E945410605D2C
:10102000F80162938F01211531054105510589F7BA
:1010300090E080E0309779F2CF010E949607CBCF05
:10104000CF93DF9360E086E20E940E0260E088E2C8
:101050000E940E0260E08AE20E940E0260E08CE2D2
:101060000E940E0260E08EE20E940E0260E08BE2BF
:101070000E940E0264E670E080E090E00E9492021E
:1010800060E086E20E940E0260E088E20E940E02AA
:1010900060E08AE20E940E0260E08CE20E940E0292
:1010A00060E08EE20E940E0260E089E20E940E0281
:1010B00060E087E20E940E0261E08BE20E940E0275
:1010C000C0910A03D0910B03C130D10561F40E9495
:1010D000B6040E94FA030E9496040E94FA03D09379
:1010E0000B03C0930A03C0910803D0910903C130D8
:1010F000D10561F40E9496050E94FA030E947605CC
:101100000E94FA03D0930903C0930803C091060319
:10111000D0910703C130D10561F40E9476060E9488
:10112000FA030E9456060E94FA03D0930703C09365
:101130000603C0910403D0910503C130D10561F4C9
:101140000E9456070E94FA030E9436070E94FA0383
:10115000D0930503C0930403C0910A03D0910B03FD
:10116000C230D105C1F40E94D6040E94FA030E9445
:10117000B6040E94FA030E9476040E94FA030E94B9
:1011800056040E94FA030E9416040E94FA03D093A8
:101190000B03C0930A03C0910803D0910903C23026
:1011A000D105C1F40E94B6050E94FA030E9496057B
:1011B0000E94FA030E9456050E94FA030E94360517
:1011C0000E94FA030E94F6040E94FA03D0930903D6
:1011D000C0930803C0910603D0910703C230D10524
:1011E000C1F40E9496060E94FA030E9476060E94AD
:1011F000FA030E9436060E94FA030E9416060E9415
:10120000FA030E94D6050E94FA03D0930703C09305
:101210000603C0910403D0910503C230D105C1F487
:101220000E9476070E94FA030E9456070E94FA0362
:101230000E9416070E94FA030E94F6060E94FA0313
:101240000E94B6060E94FA03D0930503C0930403DC
:10125000C0910A03D0910B03C330D105C1F40E94A1
:10126000D6040E94FA030E94B6040E94FA030E9468
:1012700096040E94FA030E9476040E94FA030E94D8
:1012800016040E94FA03D0930B03C0930A03C09183
:101290000803D0910903C330D105C1F40E94B605FB
:1012A0000E94FA030E9496050E94FA030E947605A6
:1012B0000E94FA030E9456050E94FA030E94F60457
:1012C0000E94FA03D0930903C0930803C091060358
:1012D000D0910703C330D105C1F40E9496060E9445
:1012E000FA030E9476060E94FA030E9456060E94A4
:1012F000FA030E9436060E94FA030E94D6050E9455
:10130000FA03D0930703C0930603C0910403D0915E
:101310000503C330D105C1F40E9476070E94FA0389
:101320000E9456070E94FA030E9436070E94FA03A1
:101330000E9416070E94FA030E94B6060E94FA0352
:10134000D0930503C0930403C0910A03D0910B030B
:10135000C430D105A1F40E94B6040E94FA030E9491
:1013600096040E94FA030E9436040E94FA030E9427
:1013700016040E94FA03D0930B03C0930A03C09192
:101380000803D0910903C430D105A1F40E94960549
:101390000E94FA030E9476050E94FA030E94160535
:1013A0000E94FA030E94F6040E94FA03D0930903F4
:1013B000C0930803C0910603D0910703C430D10540
:1013C000A1F40E9476060E94FA030E9456060E942B
:1013D000FA030E94F6050E94FA030E94D6050E94B5
:1013E000FA03D0930703C0930603C0910403D0917E
:1013F0000503C430D105A1F40E9456070E94FA03E8
:101400000E9436070E94FA030E94D6060E94FA0341
:101410000E94B6060E94FA03D0930503C09304030A
:10142000C0910A03D0910B03C530D105C1F40E94CD
:10143000D6040E94FA030E9496040E94FA030E94B6
:1014400076040E94FA030E9456040E94FA030E9446
:1014500016040E94FA03D0930B03C0930A03C091B1
:101460000803D0910903C530D105C1F40E94B60527
:101470000E94FA030E9476050E94FA030E94560514
:101480000E94FA030E9436050E94FA030E94F604A5
:101490000E94FA03D0930903C0930803C091060386
:1014A000D0910703C530D105C1F40E9496060E9471
:1014B000FA030E9456060E94FA030E9436060E9412
:1014C000FA030E94F6050E94FA030E94D6050E94C4
:1014D000FA03D0930703C0930603C0910403D0918D
:1014E0000503C530D105C1F40E9476070E94FA03B6
:1014F0000E9436070E94FA030E9416070E94FA0310
:101500000E94F6060E94FA030E94B6060E94FA03A1
:10151000D0930503C0930403C0910A03D0910B0339
:10152000C630D105E1F40E94D6040E94FA030E945D
:1015300096040E94FA030E9476040E94FA030E9415
:1015400056040E94FA030E9436040E94FA030E9485
:1015500016040E94FA03D0930B03C0930A03C091B0
:101560000803D0910903C630D105E1F40E94B60505
:101570000E94FA030E9476050E94FA030E94560513
:101580000E94FA030E9436050E94FA030E94160583
:101590000E94FA030E94F6040E94FA03D093090302
:1015A000C0930803C0910603D0910703C630D1054C
:1015B000E1F40E9496060E94FA030E9456060E94D9
:1015C000FA030E9436060E94FA030E9416060E9441
:1015D000FA030E94F6050E94FA030E94D6050E94B3
:1015E000FA03D0930703C0930603C0910403D0917C
:1015F0000503C630D105E1F40E9476070E94FA0384
:101600000E9436070E94FA030E9416070E94FA03FE
:101610000E94F6060E94FA030E94D6060E94FA0370
:101620000E94B6060E94FA03D0930503C0930403F8
:10163000C0910A03D0910B03C730D10581F40E94F9
:10164000D6040E94FA030E94B6040E94FA030E9484
:1016500096040E94FA03D0930B03C0930A03C0912F
:101660000803D0910903C730D10581F40E94B60563
:101670000E94FA030E9496050E94FA030E947605D2
:101680000E94FA03D0930903C0930803C091060394
:10169000D0910703C730D10581F40E9496060E94BD
:1016A000FA030E9476060E94FA030E9456060E94E0
:1016B000FA03D0930703C0930603C0910403D091AB
:1016C0000503C730D10581F40E9476070E94FA0312
:1016D0000E9456070E94FA030E9436070E94FA03EE
:1016E000D0930503C0930403C0910A03D0910B0368
:1016F000C830D10501F50E94D6040E94FA030E9469
:10170000B6040E94FA030E9496040E94FA030E9403
:1017100076040E94FA030E9456040E94FA030E9473
:1017200036040E94FA030E9416040E94FA03D09322
:101730000B03C0930A03C0910803D0910903C8307A
:10174000D10501F50E94B6050E94FA030E94960594
:101750000E94FA030E9476050E94FA030E94560531
:101760000E94FA030E9436050E94FA030E941605A1
:101770000E94FA030E94F6040E94FA03D093090320
:10178000C0930803C0910603D0910703C830D10568
:1017900001F50E9496060E94FA030E9476060E94B6
:1017A000FA030E9456060E94FA030E9436060E941F
:1017B000FA030E9416060E94FA030E94F6050E9490
:1017C000FA030E94D6050E94FA03D0930703C09340
:1017D0000603C0910403D0910503C830D10501F57B
:1017E0000E9476070E94FA030E9456070E94FA039D
:1017F0000E9436070E94FA030E9416070E94FA030D
:101800000E94F6060E94FA030E94D6060E94FA037E
:101810000E94B6060E94FA03D0930503C093040306
:10182000C0910A03D0910B03C930D105C1F40E94C5
:10183000D6040E94FA030E94B6040E94FA030E9492
:1018400096040E94FA030E9436040E94FA030E9442
:1018500016040E94FA03D0930B03C0930A03C091AD
:101860000803D0910903C930D105C1F40E94B6051F
:101870000E94FA030E9496050E94FA030E947605D0
:101880000E94FA030E9416050E94FA030E94F604C1
:101890000E94FA03D0930903C0930803C091060382
:1018A000D0910703C930D105C1F40E9496060E9469
:1018B000FA030E9476060E94FA030E9456060E94CE
:1018C000FA030E94F6050E94FA030E94D6050E94C0
:1018D000FA03D0930703C0930603C0910403D09189
:1018E0000503C930D105C1F40E9476070E94FA03AE
:1018F0000E9456070E94FA030E9436070E94FA03CC
:101900000E94D6060E94FA030E94B6060E94FA03BD
:10191000D0930503C093040380910A0390910B03B5
:10192000892BE1F40E94D6040E94FA030E94B604B7
:101930000E94FA030E9496040E94FA030E94760411
:101940000E94FA030E9456040E94FA030E94360481
:101950000E94FA0310920B0310920A03809108036D
:1019600090910903892BE1F40E94B6050E94FA03C5
:101970000E9496050E94FA030E9476050E94FA03CF
:101980000E9456050E94FA030E9436050E94FA033F
:101990000E9416050E94FA03109209031092080390
:1019A0008091060390910703892BE1F40E9496062B
:1019B0000E94FA030E9476060E94FA030E945606CD
:1019C0000E94FA030E9436060E94FA030E9416063D
:1019D0000E94FA030E94F6050E94FA031092070380
:1019E000109206038091040390910503892BE1F482
:1019F0000E9476070E94FA030E9456070E94FA038B
:101A00000E9436070E94FA030E9416070E94FA03FA
:101A10000E94F6060E94FA030E94D6060E94FA036C
:101A20001092050310920403DF91CF9108951F9245
:101A30000F920FB60F9211242F933F938F939F9382
:101A4000AF93BF9380910D0390910E03A0910F036C
:101A5000B091100330910C0323E0230F2D3758F57C
:101A60000196A11DB11D20930C0380930D0390934B
:101A70000E03A0930F03B093100380911103909174
:101A80001203A0911303B09114030196A11DB11D7F
:101A90008093110390931203A0931303B093140344
:101AA000BF91AF919F918F913F912F910F900FBE5A
:101AB0000F901F90189526E8230F0296A11DB11DC7
:101AC000D2CF1F920F920FB60F9211240BB60F9226
:101AD0002F933F934F935F936F937F938F939F9336
:101AE000AF93BF93EF93FF9385E193E00E94380398
:101AF000FF91EF91BF91AF919F918F917F916F91E6
:101B00005F914F913F912F910F900BBE0F900FBEA1
:101B10000F901F9018951F920F920FB60F921124DD
:101B20000BB60F922F938F939F93EF93FF93E091B8
:101B30002503F09126038081E0912B03F0912C0383
:101B400082FD1DC0908180912E038F5F8F73209145
:101B50002F03821741F0E0912E03F0E0EB5EFC4F83
:101B6000958F80932E03FF91EF919F918F912F91ED
:101B70000F900BBE0F900FBE0F901F901895808195
:101B8000F2CF789484B5826084BD84B5816084BDD1
:101B900085B5826085BD85B5816085BD80916E000B
:101BA000816080936E00109281008091810082603C
:101BB0008093810080918100816080938100809179
:101BC00080008160809380008091B1008460809368
:101BD000B1008091B00081608093B000809191004D
:101BE0008260809391008091910081608093910048
:101BF000809190008160809390008091A10082602C
:101C00008093A1008091A10081608093A1008091C8
:101C1000A00081608093A000809121018260809368
:101C20002101809121018160809321018091200117
:101C300081608093200180917A00846080937A0093
:101C400080917A00826080937A0080917A0081602E
:101C500080937A0080917A00806880937A00109255
:101C6000C100E0912503F091260382E08083E0919A
:101C70002103F09122031082E0912303F0912403C9
:101C80008FEC808310922D03E0912903F0912A03B9
:101C900086E08083E0912703F091280380818061B2
:101CA0008083E0912703F0912803808188608083FE
:101CB000E0912703F0912803808180688083E09180
:101CC0002703F091280380818F7D808360E089E382
:101CD0000E943C0260E08AE30E943C0260E088E3EC
:101CE0000E943C0260E087E30E943C0260E086E3E1
:101CF0000E943C0260E08EE10E943C0260E08FE1C5
:101D00000E943C0260E08DE10E943C0260E08CE1B8
:101D10000E943C0260E08AE10E943C0260E08BE1AC
:101D20000E943C0261E086E10E943C0261E087E1A2
:101D30000E943C0261E088E10E943C0261E089E18E
:101D40000E943C0261E086E20E943C0261E087E280
:101D50000E943C0261E088E20E943C0261E089E26C
:101D60000E943C0261E08AE20E943C0261E08BE258
:101D70000E943C0261E08CE20E943C0261E08DE244
:101D80000E943C0261E08EE20E943C0227E0222E8B
:101D9000312C01E010E033E0432E512C44E0642E5E
:101DA000712C55E0852E912C66E0E62EF12C8EE10B
:101DB0000E94E5010197D1F482E192E00E9496072A
:101DC00086E292E00E9496078BE392E00E949607DB
:101DD00061E086E10E940E0260ED77E080E090E035
:101DE0000E94920260E086E10E940E028FE10E9452
:101DF000E501EC01019709F059C08EE392E00E94E1
:101E0000960782E592E00E94960788E0C82ED12CC2
:101E100099E0A92EB12CC130D10509F090C01092E3
:101E20000B0310920A030E942008D0930B03C09367
:101E30000A030E94200882E090E090930B038093B5
:101E40000A030E94200850920B0340920A030E944A
:101E5000200870920B0360920A030E94200890925F
:101E60000B0380920A030E942008F0920B03E09279
:101E70000A030E94200830920B0320920A030E945A
:101E80002008D0920B03C0920A030E942008B0924F
:101E90000B03A0920A030E942008D0930B03C09367
:101EA0000A032196C430D10509F0B5CF8DE10E9417
:101EB000E501019721F482E792E00E9496078CE108
:101EC0000E94E501019721F486E892E00E949607BE
:101ED0008BE10E94E501019721F48AE992E00E94DA
:101EE00096078AE10E94E501019721F480EB92E0D8
:101EF0000E9496070E946801892B69F086EC92E0A7
:101F00000E94960787E30E94E5010E94A3078BE3E6
:101F100092E00E9496070E946801892B69F086EE84
:101F200092E00E94960786E30E94E5010E94A307C3
:101F30008BE392E00E9496070E94CB0338CFC23019
:101F4000D10509F041C010920903109208030E94C4
:101F5000200810930903009308030E942008D093DF
:101F60000903C09308030E9420085092090340927D
:101F700008030E94200870920903609208030E94DF
:101F8000200890920903809208030E942008F09292
:101F90000903E09208030E9420083092090320926E
:101FA00008030E942008D0920903C09208030E94EF
:101FB0002008B0920903A09208030E942008109301
:101FC0000903009308036DCF1092070310920603D4
:101FD0000E94200810930703009306030E94200824
:101FE00082E090E090930703809306030E9420080C
:101FF00050920703409206030E9420087092070344
:10200000609206030E9420089092070380920603C4
:102010000E942008F0920703E09206030E94200825
:1020200030920703209206030E942008D0920703F3
:10203000C09206030E942008B0920703A0920603F4
:102040000E94200810930703009306032ACFE5E1BE
:10205000F3E01382128288EE93E0A0E0B0E0848384
:102060009583A683B78384E092E09183808385EC97
:1020700090E09587848784EC90E09787868780EC52
:1020800090E0918B808B81EC90E0938B828B82EC43
:1020900090E0958B848B86EC90E0978B868B118EED
:1020A000128E138E148E0895A1E21A2EAA1BBB1B4A
:1020B000FD010DC0AA1FBB1FEE1FFF1FA217B30714
:1020C000E407F50720F0A21BB30BE40BF50B661F2A
:1020D000771F881F991F1A9469F7609570958095EE
:1020E00090959B01AC01BD01CF010895EE0FFF1F3C
:1020F000881F8BBF0790F691E02D1994F894FFCFBD
:10210000000000005A03C402F102A70322030003E7
:102110001403426F7574746F6E204120636C697193
:10212000756572200A00416C6C756D616E67652083
:102130006465206C61204C454431000D0A00426FFB
:102140007574746F6E204220636C697175657220BE
:102150000A0044C3A96D617272616765207465737A
:10216000742064652037207365676D656E74732015
:102170000A00426F7574746F6E204D20636C697134
:10218000756572200A00426F7574746F6E2053205B
:10219000636C6971756572200A00426F7574746FA3
:1021A0006E2041524420636C6971756572200A008B
:1021B000426F7574746F6E2041524720636C697171
:1021C000756572200A0056616C6575722064652021
:1021D0006A6F79737469636B204761756368652DF5
:1021E00044726F69740056616C6575722064652075
:1021F0006A6F79737469636B20486175742D4261ED
:02220000730069
:00000001FF
